:100283001202E8E528C4540F2408F8E6F51EE52811
:10029300540F2408F8E6F51F7520767B007A007961
:0802A3001E7D0612013880DB0C
:1002C90011083F065B4F666D7D077F6F777C395E4E
:0302D90079710038
:060138008B218A228923BD
:10013E00E4F524ED14F525F524E524C39408507B4D
:10014E00E524B40800504D90015CF8282873020194
:10015E007402017802017C02018002018402018C8A
:10016E0002019402019CD2A4800ED2A48012D2A4C9
:10017E008016D2A4801AC2A4D2A3D2A28016C2A480
:10018E00D2A3C2A2800EC2A4C2A3D2A28006C2A4CF
:10019E00C2A3C2A2C3E5249525FFE49400AB21AA15
:1001AE0022A9238F82F583120256F5807F647E008A
:0B01BE001202DDE4F580052402014779
:0101C9002213
:0902E800D288D2A8D2AFD2B22212
:03000300020006F2
:10000600C0E0C0F0C083C082C0D075D000C000C0C0
:0D00160001C002C003C004C005C006C00741
:10002300751900751A00751B00751C00751D0030CD
:10003300B20302011D751A03751BE820B21EE51BEE
:10004300451A60187F017E001202DDE51B151B7047
:1000530002151AE51B451A70E202011D20B20302C4
:100063000105751A01751BF430B21EE51B451A60B4
:10007300187F017E001202DDE51B151B7002151AA5
:10008300E51B451A70E202011D751C00751D007504
:100093001A02751B5820B21DE51B451A60177F0114
:1000A3007E001202DDE51B151B7002151AE51B45C8
:1000B3001A70E28065751A00751B1430B2127F0A3C
:1000C3007E001202DD0519E519D3941440ED804A30
:1000D3007426251CF8C000E6C313D000F6E519C347
:1000E300940840097426251CF8E64480F675190027
:1000F300051DE51DC394084096051CE51CC3940427
:10010300408AE529F465286011751C007426251CB6
:0A011300F87600051CE51CB404F2A8
:10011D00D007D006D005D004D003D002D001D00036
:0B012D00D0D0D082D083D0F0D0E032E0
:0B02DD00EF1FAC0670011E4C70F622F3
:1002AB00D3EF9400EE940040147D6E7C00ED1D7036
:0D02BB00011CED4C70F7EF1F70E61E80E394
:0102C8002213
:030000000201CA30
:0C01CA00787FE4F6D8FD7581290202114F
:10025600BB010CE58229F582E5833AF583E022505D
:1002660006E92582F8E622BBFE06E92582F8E222A7
:0D027600E58229F582E5833AF583E49322C1
:1001D600020283E493A3F8E493A34003F68001F2BA
:1001E60008DFF48029E493A3F85407240CC8C3332A
:1001F600C4540F4420C8834004F456800146F6DFF9
:10020600E4800B01020408102040809002C9E47EBD
:10021600019360BCA3FF543F30E509541FFEE493ED
:10022600A360010ECF54C025E060A840B8E493A3B4
:10023600FAE493A3F8E493A3C8C582C8CAC583CADF
:10024600F0A3C8C582C8CAC583CADFE9DEE780BE97
:0102DC000021
:00000001FF
