:10041600E4F519F51A7FE41204EF8E198F1AAC1958
:10042600AD1AE41201AEE4FBFA79A078401200039B
:10043600E4FBFA7980784512010C8F1E8E1D8D1C07
:100446008C1BE4FFFE7D207C41AB1EAA1DA91CA8C7
:100456001B1200031201E78E198F1A7C007D0A1207
:10046600029574082FF8E64480F51FAE19AF1A7C82
:10047600007D0A12029574082DF8E6F52075213ED6
:0D0486007B007A00791F7D061202F8808845
:1005090011083F065B4F666D7D077F6F777C395E0B
:03051900797100F5
:0602F8008B228A238924F9
:1002FE00E4F525ED14F526F525E525C39408507B88
:10030E00E525B40800504D90031CF828287302030D
:10031E003402033802033C02034002034402034C3E
:10032E0002035402035CD2A4800ED2A48012D2A483
:10033E008016D2A4801AC2A4D2A3D2A28016C2A4BE
:10034E00D2A3C2A2800EC2A4C2A3D2A28006C2A40D
:10035E00C2A3C2A2C3E5259526FFE49400AB22AA50
:10036E0023A9248F82F583120268F5807F647E00B4
:0B037E0012051DE4F5800525020307B1
:010389002251
:10049300C2B600E4FEEFC4131313540124FF92B455
:0E04A300EF25E0FFC2B600D2B6000EBE08E79D
:0104B1002228
:1004B200E4FFFEC2B600FDEF25E0FFEE33FED2B64A
:0E04C20000C2B600A2B7E43342070DBD0CE93C
:0104D0002209
:1004EF00E4FDFCC2B6C2B51204937F06DFFED2B69E
:0904FF0000C2B6001204B2D2B52D
:0105080022D0
:0B051D00EF1FAC0670011E4C70F622B0
:1004D100D3EF9400EE940040147D6E7C00ED1D700E
:0D04E100011CED4C70F7EF1F70E61E80E36C
:0104EE0022EB
:10000300EC4D6011E8497017ED33EC3304600DE4F7
:10001300FCFFFEFD22E933E8330470F802025312B9
:10002300021E58046009E4CC2481500628500902BA
:10003300025D28400302025AC0E0EB4A7044B980D3
:1000430006D0E0FB020249EF4E701CBD8008EBFFB7
:10005300EAFEE9FD80EBE98DF0A4FEE5F00200EC99
:10006300E9CDF9EAFEEBFFEF89F0A4FCE5F0CE89D8
:10007300F0A42EFFE435F0CD89F0A42DFEE435F095
:100083008067EF4E7005BD80D780C3EF8BF0A4ACC3
:10009300F0EE8BF0A42CFCE435F0F8EF8AF0A42CFE
:1000A300E5F038FCE433CB8DF0A42CFCE5F03BF811
:1000B300EE8AF0A42CFCE5F038F8E433CF89F0A401
:1000C3002CFCE5F038CF3400CE89F0A42FFFE5F007
:1000D3003EFEE433C98DF0A42EFEE5F039CD8AF05F
:1000E300A42FFFE5F03EFEE43DFD33D0E0FB5007D7
:1000F3000BBB000F02025DEC2CFCEF33FFEE33FE73
:06010300ED33FD020235A0
:1001090002025DEC5D046005E859047003020253C4
:1001190012021E580460F6EC4860F2EC7004FDFE11
:10012900FF22C860DB2481C85009C39860025006C9
:1001390002025A9850CAF582E9294B4A7005AB82E6
:1001490002024975F0007C1A7880C3EF9BEE9AEDA4
:1001590099400DC3EF9BFFEE9AFEED99FDE842F041
:10016900DC23ACF0D0E0FFD0E0FED0E0FDAB822094
:10017900E7101BEB60BAEC2CFCEF33FFEE33FEED1E
:1001890033FD020235E803F830E705C0F075F000E9
:10019900EF2FFFEE33FEED33FD40B830E7C280AA02
:1001A90075F020800E75F010800575F0087D007ED1
:1001B900007F003392D530D5031202EAEC334010A8
:1001C900EF33FFEE33FEED33FDEC33FCD5F0ED22DA
:0E01D900E5F0247EA2D513CC92E7CDCEFF2216
:1001E700EDD2E7CD33EC3392D524814006E4FFFE10
:1001F700FDFC22FCE4CFCECDCC24E0501174FF806F
:10020700EDC3CC13CCCD13CDCE13CECF13CF04700B
:07021700F030D5DE0202EA1F
:10021E00E9D2E7C933E833F892D5EDD2E7CD33EC26
:07022E0033FC5002B2D5229F
:10023500EC30E7100FBF000C0EBE00080DBD00042A
:100245000BEB6014A2D5EB13FCED92E7FD2274FFD6
:10025500FCFDFEFF22E480F8A2D574FF13FC7D802F
:03026500E480EF43
:0300000002038A6E
:0C038A00787FE4F6D8FD7581260203D1CF
:10026800BB010CE58229F582E5833AF583E022504B
:1002780006E92582F8E622BBFE06E92582F8E22295
:0D028800E58229F582E5833AF583E49322AF
:10029500BC000BBE0029EF8DF084FFADF022E4CC4D
:1002A500F875F008EF2FFFEE33FEEC33FCEE9DEC16
:1002B500984005FCEE9DFE0FD5F0E9E4CEFD22ED5C
:1002C500F8F5F0EE8420D21CFEADF075F008EF2FA6
:1002D500FFED33FD4007985006D5F0F222C398FD97
:0502E5000FD5F0EA2234
:0E02EA00C3E49FFFE49EFEE49DFDE49CFC2225
:10039600020416E493A3F8E493A34003F68001F263
:1003A60008DFF48029E493A3F85407240CC8C33368
:1003B600C4540F4420C8834004F456800146F6DF37
:1003C600E4800B0102040810204080900509E47EB9
:1003D600019360BCA3FF543F30E509541FFEE4932C
:1003E600A360010ECF54C025E060A840B8E493A3F3
:1003F600FAE493A3F8E493A3C8C582C8CAC583CA1E
:10040600F0A3C8C582C8CAC583CADFE9DEE780BED5
:01051C0000DE
:00000001FF
