:10012800E4F519F51AE4FF1201958F19E519B401E0
:1001380009AD1AE4FF1202BD8027E519B40209E4EB
:10014800FF1202608F1A8019E519B4030C051AE52D
:100158001AB4FF0D751AFF8008E519B40403E4F515
:100168001AE51A75F06484F51BE51A75F06484AF16
:10017800F0EF75F00A84F51CEF75F00A8485F01D20
:0D0188007B007A00791B7D06120003809831
:1002BD008F1E8D1F1202E67FA01201E112030AAFFD
:1002CD001E1201E112030AAF1F1201E112030A12FD
:0902DD00034A7F0A7E0002032C93
:020260008F1EEF
:10026200E4F51F1202E67FA01201E112030AAF1E9B
:100272001201E112030A1202E67FA11201E1120346
:0D0282000AE4FF1202228F1F12034AAF1F71
:01028F00224C
:1002E600D2A07F017E001203AAD2A17F017E001256
:1002F60003AAC2A07F017E001203AAC2A17F017ECB
:04030600000203AA44
:10034A00C2A07F017E001203AAD2A17F017E001201
:0B035A0003AAD2A07F017E000203AACC
:10036500C2A1C2A07F017E001203AAD2A17F017E95
:07037500001203AAC2A1223D
:10037C00C2A1D2A07F017E001203AAD2A17F017E6E
:07038C00001203AAC2A12226
:10030A00E4F520D2A17F01FE1203AA30A00F052036
:10031A00E520D3946440F412034A7F0122C2A17FEC
:01032A0000D2
:01032B0022AF
:0201E1008F206D
:1001E300E4F521C2A1F521E5205480D39400400415
:1001F300D2A08002C2A0E52025E0F5207F017E0089
:100203001203AAD2A17F017E001203AAC2A17F0119
:0E0213007E001203AA0521E521C3940840C90C
:0102210022BA
:020222008F202B
:10022400E4F521F522F521C2A17F017E001203AA83
:10023400D2A1E52225E0F52230A00205227F017E2D
:10024400001203AA0521E521C3940840DAE52070D1
:0B0254000512037C8003120365AF223B
:01025F00227C
:0303930001230142
:10019500EF6003752301E5236401702E30B109304A
:1001A500B00630B20320B3227FE87E031203AAE42F
:1001B500F52320B1037F012220B0037F022220B264
:1001C500037F032220B3127F042230B10C30B00923
:0B01D50030B20630B3037523017F0039
:0101E00022FC
:1003960011083F065B4F666D7D077F6F777C395E80
:0303A6007971006A
:060003008B1E8A1F8920FC
:10000900E4F521ED14F522F521E521C39408400317
:1000190002009BE521B40800504D90002AF82828D9
:100029007302004202004602004A02004E020052D8
:1000390002005A02006202006AD2A4800ED2A48091
:1000490012D2A48016D2A4801AC2A4D2A3D2A280AA
:1000590016C2A4D2A3C2A2800EC2A4C2A3D2A280F5
:1000690006C2A4C2A3C2A2C3E5219522FFE494005B
:10007900AB1EAA1FA9208F82F5831202902408F8CB
:10008900E6F5807F647E001203AAE4F5800521026B
:02009900001253
:01009B002242
:0B03AA00EF1FAC0670011E4C70F62225
:10032C00D3EF9400EE940040147D6E7C00ED1D70B4
:0D033C00011CED4C70F7EF1F70E61E80E312
:010349002291
:0300000002009C5F
:0C009C00787FE4F6D8FD7581230200E3B4
:10029000BB010CE58229F582E5833AF583E0225023
:1002A00006E92582F8E622BBFE06E92582F8E2226D
:0D02B000E58229F582E5833AF583E4932287
:1000A800020128E493A3F8E493A34003F68001F245
:1000B80008DFF48029E493A3F85407240CC8C33359
:1000C800C4540F4420C8834004F456800146F6DF28
:1000D800E4800B0102040810204080900393E47E22
:1000E800019360BCA3FF543F30E509541FFEE4931D
:1000F800A360010ECF54C025E060A840B8E493A3E4
:10010800FAE493A3F8E493A3C8C582C8CAC583CA0E
:10011800F0A3C8C582C8CAC583CADFE9DEE780BEC6
:0103A9000053
:00000001FF
