:1000030048656C6C6F20576F726C6400303132330B
:1000130034353637383900C6D5D6D0BFC6BCBC0058
:102FB5001239A012220274FF9000EEF0A3F09000E7
:102FC500E9E0FFA3E090003ACFF0A3EFF0A3740C83
:102FD500F0A374FFF0A37400F0A37403F09000E76E
:102FE500E0FAA3E0FB7D0A7C007F0A7E0012309E9A
:102FF5009000E9E0FFA3E090003ACFF0A3EFF0A343
:103005007410F0A374FFF0A37400F0A37403F090A0
:1030150000E7E0FAA3E0FB7D1E7C007F0A7E00123C
:10302500309E9000E9E0FFA3E090003ACFF0A3EFD7
:10303500F0A37418F0A374FFF0A37400F0A3740355
:10304500F09000E7E0FAA3E0FB7D327C007F0A7E8A
:103055000012309E9000E9E0FFA3E090003ACFF027
:10306500A3EFF0A37410F0A374FFF0A37400F0A312
:10307500740FF09000E7E0FAA3E0FB7D507C007F41
:103085000A7E0012309E7BFF7A00791A7D647C00EF
:093095007F0A7E00122C6980FE06
:0B39FA00EF1FAC0670011E4C70F6229F
:10398200D3EF9400EE940040147D6E7C00ED1D7028
:0D399200011CED4C70F7EF1F70E61E80E386
:01399F002205
:0539DC00420032000072
:1039A000759850758920758780758DFA858D8BD2B5
:0639B000AFD28ED2992275
:063A0F00EF24FF92AC223F
:0E39EC00C2ACC2998F993099FDC299D2AC221B
:1038BD00900120EBF0A3EAF0A3E9F0900120E0FBEA
:1038CD00A3E0FAA3E0F9121F7EFF60161239EC7F18
:1038DD00057E001239FA900121E475F001121FD610
:0338ED0080D9225D
:030023000235E9BA
:1035E900C0E0C083C082C0D075D000C004C005C08F
:0135F90007CA
:1035FA00309864C298AF99900032E0FCEC20E7570B
:10360A0030E60FEF640A90003260028046E04480A0
:10361A00800AEFB40D0C900032E04440F0A3E0F0D1
:10362A008035900032E0543FFCA3E02400F5827418
:10363A00003CF583EFF0900033E004F07006900050
:10364A0032E004F0D3900033E09431900032E094F9
:07365A00004004E4F0A3F0BE
:0F366100D007D005D004D0D0D082D083D0E032B3
:10002600204C43442049443A25780D0A000000003C
:10003600000000000000000000000000003F40003B
:1000460000000000000000300040003000400000CA
:100056000009000BC03D000BC03D00090018C0247C
:10006600407FE0224031800000180024C01B000DB4
:10007600803240018003801C4027401C80074000DE
:1000860040100060000000000000000000000000BA
:100096000000001F80204040200000402020401F1C
:1000A6008000000000090006001F8006000900000D
:1000B60000040004003F800400040000000010005B
:1000C60060000000000000000004000400040004BA
:1000D60000040000000000004000000000000000D6
:1000E60000002001C006003800400000001F8020EC
:1000F60040204020401F800000000010403FC0000C
:10010600400000000018C021402240244018400052
:100116000010802040244024401B80000002000D77
:100126000011003FC0014000003C802440244024D0
:1001360040238000001F8024402440344003800078
:10014600003000200027C03800200000001B80245B
:1001560040244024401B8000001C0022C022402274
:10016600401F800000000000000840000000000062
:100176000000000000046000000000000000000411
:10018600000A00110020804040090009000900090A
:10019600000900000000004040208011000A000411
:1001A600001800200023402400180000001F8020B3
:1001B60040274029401F400000004007C039000F7B
:1001C6000001C0004020403FC0244024401B800066
:1001D600001F802040204020403080000020403F0B
:1001E600C0204020401F80000020403FC024402EF9
:1001F6004030C0000020403FC024402E00300000A8
:10020600000F001080204022403380020020403F33
:10021600C0040004003FC02040204020403FC020D2
:1002260040204000000060202020203FC020002009
:100236000020403FC024400B0030C0204020403FFB
:10024600C020400040004000C03FC03C0003C03C0E
:10025600003FC0000020403FC00C4023003FC020AC
:10026600001F802040204020401F80000020403F8B
:10027600C024402400180000001F80214021402097
:10028600E01FA0000020403FC02440260019C00007
:100296004018C02440244022403180000030002015
:1002A600403FC020403000000020003F800040005A
:1002B600403F80200020003E0001C007003800209B
:1002C60000380007C03C0007C03800000020403955
:1002D600C0060039C0204000002000384007C03862
:1002E6004020000000304021C02640384020C00099
:1002F60000000000007FE040204020000000007069
:10030600000C000380004000000000402040207FD9
:10031600E000000000000020004000200000000077
:100326000000100010001000100010001000000067
:1003360000400000000000000000000280054005AB
:100346004003C0004020003FC0044004400380003A
:100356000000000380044004400640000000000343
:1003660080044024403FC000400000038005400553
:100376004003400000000004401FC02440244020E9
:1003860000000002E0055005500650042020403FC2
:10039600C00440040003C000400000044027C00021
:1003A600400000000000100010041027E0000000CC
:1003B6000020403FC00140070004C0044020402008
:1003C600403FC000400040000007C0040007C004D2
:1003D6000003C00000044007C00440040003C0003E
:1003E600400000038004400440038000000410071E
:1003F600F004500440038000000000038004400421
:100406005007F00010044007C0024004000400003A
:1004160000000006400540054004C000000000043E
:10042600001F8004400040000004000780004004D4
:100436004007C000400400070004C0018006000415
:1004460000060001C0070001C006000000044006C7
:10045600C0010006C0044000000410071004E001BB
:1004660080060004000000044005C0064004400069
:10047600000000000004007BE040200000000000B7
:10048600000000FFF000000000000040207BE004B8
:1004960000000000004000800040002000200040D6
:1004A6000000000000000000000000000000000046
:1004B600000000000000001FCC000C00000000003F
:1004C60000000008003000600008003000600000F6
:1004D60000022003FC1E20022003FC1E2002200036
:1004E6000000000E1811043FFF10840C7800000075
:1004F600000F0010840F3800C007781884007800B9
:100506000000780F8410C411240E9800E4008400C3
:1005160008080068007000000000000000000000ED
:100526000000000000000007E01818200440020048
:1005360000000040022004181807E0000000000038
:10054600000240024001800FF0018002400240009C
:10055600000080008000800FF8008000800080008E
:10056600000001000D000E00000000000000000069
:100576000000000080008000800080008000800075
:10058600800000000C000C000000000000000000CD
:100596000000000006001800600180060018002018
:1005A60000000007F0080810041004080807F0000F
:1005B600000000080408041FFC00040004000000FA
:1005C6000000000E0C10141024104411840E0C00B0
:1005D6000000000C1810041104110412880C70009D
:1005E60000000000E00320042408241FFC0024006F
:1005F6000000001F98108411041104108810700068
:1006060000000007F0088811041104188800700023
:100616000000001C00100010FC13001C001000005D
:100626000000000E3811441084108411440E380066
:100636000000000700088C10441044088807F000EA
:1006460000000000000000030C030C000000000086
:10065600000000000000010106000000000000008C
:100666000000000080014002200410080810040069
:100676000002200220022002200220022002200086
:100686000000001004080804100220014000800049
:100696000000000E001200100C106C10800F0000FD
:1006A6000003E00C1813E4142417C4082807D0002C
:1006B600000004003C03C41C40074000E4001C008A
:1006C6000410041FFC1104110411040E88007000AC
:1006D6000003E00C1810041004100410081C10008D
:1006E6000010041FFC100410041004080807F00092
:1006F6000010041FFC1104110417C410040818008C
:100706000010041FFC1104110017C010000800009F
:100716000003E00C181004100410441C780040007C
:100726000010041FFC10840080008010841FFC1041
:10073600040000100410041FFC1004100400000044
:100746000000030001100110011FFE100010000040
:100756000010041FFC110403801464181C1004000C
:100766000010041FFC1004000400040004000C0028
:100776000010041FFC1F0000FC1F001FFC100400DB
:100786000010041FFC0C04030000E010181FFC10EE
:100796000007F00808100410041004080807F00009
:1007A6000010041FFC10841080108010800F0000C1
:1007B6000007F0081810241024101C080A07F2007D
:1007C6000010041FFC1104110011C011300E0C00A2
:1007D6000400000E1C11041084108410441C380000
:1007E600001800100010041FFC1004100018000070
:1007F6000010001FF810040004000410041FF81075
:100806000010001E0011E0001C007013801C001078
:10081600001FC0103C00E01F0000E0103C1FC0009D
:10082600001004180C163401C001C01634180C1040
:100836000410001C00130400FC13041C001000002C
:10084600000804101C1064108413041C0410180003
:10085600000000000000007FFE400240024002004F
:1008660000000030000C0003800060001C00030044
:100876000000004002400240027FFE00000000002F
:100886000000000000200040004000400020000062
:10089600000001000100010001000100010001004B
:1008A60001000040004000200000000000000000A1
:1008B6000000000098012401440144014400FC00AA
:1008C6000410001FFC008801040104008800700069
:1008D6000000000070008801040104010400880083
:1008E600000000007000880104010411081FFC00CC
:1008F60004000000F8014401440144014400C8001A
:10090600000000010401040FFC1104110411001879
:1009160000000000D601290129012901C9010600AC
:100926000010041FFC008401000100010400FC000B
:100936000400000104190419FC000400040000006E
:10094600000000000300010101190119FE0000006A
:100956000010041FFC0024004001B4010C01040037
:10096600000000100410041FFC0004000400000036
:1009760000010401FC0104010001FC010401000066
:10098600FC010401FC008401000100010400FC00DC
:1009960004000000F8010401040104010400F80049
:1009A60000010101FF0085010401040088007000B8
:1009B6000000000070008801040104010501FF0029
:1009C600010104010401FC0084010401000180000E
:1009D60000000000CC012401240124012401980018
:1009E6000000000100010007F801040104000000F6
:1009F60000010001F8000400040004010801FC00E5
:100A060004010001800170000C00100160018001EA
:100A16000001F0010C003001C00030010C01F001B2
:100A26000000000104018C00740170018C010400B7
:100A360000010101810171000E00180160018001B1
:100A46000000000184010C013401440184010C0002
:100A560000000000000000000001003EFC400240D3
:100A6600020000000000000000FFFF000000000080
:100A7600000000400240023EFC01000000000000B1
:100A86000000006000800080004000400020002040
:100A96000000000000000000000000000000000050
:100AA6000000000000000000000000000000000040
:100AB6000000000000000000000000000000000030
:100AC600000000000F80380FFE380F80380000004D
:100AD600000000000000000000000000000000010F
:100AE60000000600000C000038000031000006007F
:100AF600000C00003800003000000000000000007C
:100B06000061800067F807F980006180006180005D
:100B160061800061800067F807F98000618000004D
:100B26000000000000000001C0E003E0F00630080D
:100B36000418081FFFFE040E080787F00381E00073
:100B4600000000000001F000060C00040408060C7A
:100B56007001F9C0000E00003BE000EC1807080821
:100B6600040C180003E00000000001E00007F00399
:100B7600F818041C0804170807E1D003C0E0002396
:100B8600B0003C0800200800001000000000000033
:100B96000100003100003200001C000000000000CF
:100BA600000000000000000000000000000000003F
:100BB600000000000000000000000000000000002F
:100BC600007F0001FFC00780F00C00181000042011
:100BD60000020000000000002000021000040C00CB
:100BE600180780F001FFC0007F0000000000000031
:100BF60000000000000000000000000000420000AD
:100C06006600006600003C0000180003FFC00018E4
:100C160000003C0000660000660000420000000084
:100C26000008000008000008000008000008000195
:100C3600FFC00008000008000008000008000008C7
:100C46000000000000000100003100003200001C1E
:100C5600000000000000000000000000000000008E
:100C66000000000000000000000800000800000866
:100C76000000080000080000080000080000080046
:100C8600000800000800000000000000000000004E
:100C960000380000380000380000000000000000A6
:100CA600000000000000000000000000000000003E
:100CB60000000600001C000070000180000E00000D
:100CC600380000C0000700001C00003000000000D3
:100CD60000000000007F8001FFE00380700600181E
:100CE60004000804000806001803807001FFE000F5
:100CF6007F800000000000000000000100080100E5
:100D06000801000803FFF807FFF8000008000008C4
:100D160000000800000000000000000001C03802CA
:100D2600C058040098040118040218040418061C8C
:100D36001803F81801E0F8000000000000000000A9
:100D460001C0E003C0F0040008040808040808060F
:100D5600180803F41801E7F00001E00000000000A5
:100D660000000000000300000D00001100006100FB
:100D760000810803010807FFF80FFFF800010800CB
:100D860001080000000000000000E007FCD0060893
:100D960008061008061008061008061838060FF090
:100DA6000607C0000000000000000000003F8001B0
:100DB600FFE0038430020818041008041008041029
:100DC60008071810030FF00007C00000000000001D
:100DD60000000003C0000700000600000600F80639
:100DE60007F806180006E0000700000600000000ED
:100DF6000000000001E1E003F7F0063410041808D3
:100E0600041808040C08040C0806161803F3F0016D
:100E1600C1E000000000000000F80003FC300306FB
:100E2600380402080402080402080404100308F047
:100E360001FFC0007F00000000000000000000006D
:100E460000000000000000000070380070380070DC
:100E56003800000000000000000000000000000054
:100E660000000000000000000000000000301A0032
:100E7600301C000000000000000000000000000020
:100E8600000000000000000008000014000022001E
:100E9600004100008080010040020020040010088C
:100EA60000080000000000000021000021000021D1
:100EB6000000210000210000210000210000210087
:100EC60000210000210000000000000000000008D2
:100ED600000804001002002001004000808000414C
:100EE60000002200001400000800000000000000BE
:100EF60003C00004C000040000080038080F3808CA
:100F060008380810000C300007E00003C00000009D
:100F160000000000003F8000FFE0038070020F1019
:100F260006708804C088048308047F8802C0900382
:100F3600012000FE400000080000180001F8003EF5
:100F46000801C20007020007E20000FE00001FC8F9
:100F56000001F800003800000804000807FFF80741
:100F6600FFF8040808040808040808040808061816
:100F76000803F41801E7F00001E00000000000009B
:100F8600003F8001FFE0038070020018040008049F
:100F960000080400080400100600200780C00000B6
:100FA6000004000807FFF807FFF80400080400081B
:100FB60004000804001802001003807001FFE0001E
:100FC6007F8000000004000807FFF807FFF8040808
:100FD60008040808040808040808043E0804000871
:100FE60006001801006000000004000807FFF8076B
:100FF600FFF8040808040800040800040800043E7A
:10100600000600000600000180000000000000004D
:10101600003F8001FFE0038070060018040008040A
:1010260002080402080203F00783F000020000022F
:101036000004000807FFF807FFF804080800080086
:1010460000080000080000080004080807FFF80769
:10105600FFF8040008000000000000040008040077
:101066000804000807FFF807FFF804000804000852
:101076000400080000000000000000000000060058
:10108600000700000104000104000104000307FF3B
:10109600FE07FFFC04000004000004000004000832
:1010A60007FFF807FFF8040C08001800003E0004CC
:1010B600C7800503C80600F80400380400180000BD
:1010C6000804000807FFF807FFF8040008000008F6
:1010D60000000800000800000800000800001800D2
:1010E600006000000004000807FFF807800807FCFE
:1010F60000007FC00003F80007C0007800078008E2
:1011060007FFF807FFF804000804000807FFF807C0
:10111600000803C00000E000003800001E000007C1
:10112600000001C00400F007FFF804000000000002
:10113600007F8001FFE003807006001804000804A9
:10114600000806001803003001FFE0007F80000061
:101156000004000807FFF807FFF804040804040069
:10116600040400040400040400060C0003F8000153
:10117600F000000000000000007F8001FFE0038017
:10118600700600880400880400C806003C03003E80
:1011960001FFE6007F8400000004000807FFF8074F
:1011A600FFF8040808040800040C00040F00040BF0
:1011B600C00610F003F03801E00800000800000047
:1011C60001E0F803F030063010041808041808048B
:1011D6000C08040C080206180207F00781E000005C
:1011E600000180000600000400000400000400085E
:1011F60007FFF807FFF804000804000004000006D3
:10120600000001800004000007FFE007FFF0040073
:101216001800000800000800000800000800000888
:1012260004001007FFE004000004000006000007A9
:10123600E00007FE00041FE00001F800003800018E
:10124600E0043E0007C000060000040000040000A1
:1012560007E00007FFC0041FF80007C007F80007F3
:10126600FF80043FF80007C004F8000700000400F0
:101276000000000004000806001807C07805F1C841
:10128600003E00001F800463E80780F8060018048B
:10129600000800000004000006000007800007E0C8
:1012A60008047C08001FF80007F800180804E00886
:1012B6000700000600000400000000000100080608
:1012C60000380400F80403E8040F08047C0805F05D
:1012D6000807C008070018040060000000000000AE
:1012E6000000000000000000000000003FFFFE209C
:1012F600000220000220000220000220000200005E
:101306000000000000000008000007000000C00008
:101316000038000006000001C000003000000E008A
:101326000001000000000000000000200002200074
:10133600022000022000022000023FFFFE00000003
:101346000000000000000000000000000000000097
:1013560000000800001000003000002000003000EF
:10136600001000000800000000000000000000015E
:101376000000010000010000010000010000010062
:101386000001000001000001000001000001000052
:101396000100000000000000000020000020000006
:1013A6001000001000000000000000000000000017
:1013B60000000000000000000000F00019F8001B0B
:1013C60018002208002608002408002410003FF810
:1013D600001FF800000800001800000004000007C5
:1013E600FFF80FFFF0001818001008002008002072
:1013F60008003018001FF0000FC0000000000000B9
:101406000007C0001FF00018300020080020080068
:101416002008003C08001C100000600000000000CE
:10142600000000000007C0001FF000381800200868
:1014360000200800200804101007FFF80FFFF00036
:1014460000100000000000000000000007C0001FA0
:10145600F00012300022180022080022080032088C
:10146600001E10000E2000000000000000200000FA
:10147600200800200801FFF803FFF80620080420D2
:1014860008042008072000030000000000000000F8
:1014960000000E000E6E001FF30031B10020B100F7
:1014A60020B1003191001F13002E1E00200E0030C7
:1014B6000000000004000807FFF80FFFF8001008FE
:1014C600002000002000002008003FF8001FF80060
:1014D60000080000000000000000000020080020B6
:1014E60008002008063FF8063FF80000080000083C
:1014F60000000800000000000000000000000000DE
:101506000003000003002001002001002003063F25
:10151600FE063FFC00000000000000000000000086
:1015260004000807FFF80FFFF80001880003000019
:101536002FC00038F80020380020080000080000FE
:101546000000000000000004000804000804000871
:1015560007FFF80FFFF80000080000080000080069
:101566000000000000002008003FF8003FF80010CF
:1015760008002000003FF8003FF800100800200097
:10158600003FF8003FF800000800000000200800B7
:101596003FF8003FF800100800100000200000206F
:1015A60008003FF8001FF8000008000000000000D7
:1015B6000007C0000FF000183000300800200800B7
:1015C6002008003008001830000FF00007C00000A7
:1015D60000000000002001003FFF003FFF00101147
:1015E600002009002008002008003038001FF00005
:1015F6000FC00000000000000007C0001FF0003808
:1016060018002008002008002009001011001FFF04
:10161600003FFF0000010000000020080020080035
:101626002008003FF8003FF80008080010080020D6
:10163600080020000030000030000000000000001C
:10164600000000000C78001E180033080023080074
:1016560021080021880021980030F0003860000041
:101666000000000000200000200000200000FFF025
:1016760003FFF800200800200800200800003000C2
:101686000000000000000000002000003FF0007F86
:10169600F8000018000008000008002010003FF8BD
:1016A600007FF00000100000000000000020000095
:1016B6003000003C00003F800023F000007800006E
:1016C60070002380003C0000300000200000200055
:1016D600003C00003FE00023F80000E00027000087
:1016E6003E00003FE00021F80001E0003E0000203F
:1016F60000000000002008002008003838003E687E
:101706000027800003C8002CF80038380020180095
:101716002008000000000000002000003003003C0C
:1017260001003F830023EC000070002380003C0092
:101736000020000020000000000000000000000063
:1017460038080020380020F80023E8002F88003EE3
:101756000800380800201800007000000000000093
:10176600000000000000000000000000000800006B
:1017760014001FF7FC3000062000020000000000E5
:101786000000000000000000000000000000000053
:10179600000000FFFFFF0000000000000000000046
:1017A60000000000000000000000002000023000E1
:1017B600061FF7FC001400000800000000000000EF
:1017C600000000000000000000000000180000609B
:1017D600000040000040000020000010000008004B
:1017E600000400000400000C0000100000C6D50034
:1017F60000000000E0380000783C00003C78000063
:101806003C70C0001CE1E01FFFFFF0001CE3000E6F
:101816001CE7C0079CE78003DCEF0003DCEE000159
:10182600DCFC60009CF9F07FFFFFF800000000017F
:10183600C00E0001FFFF0001C00E0001C00E000136
:10184600C00E0001FFFE0001C00E0001C00E000127
:10185600C00E0001FFFE0001C00E0001C00E000018
:10186600000000D6D000000000000700000007803E
:101876000000070000000700000007000000070145
:10188600801FFFFFE01FFFFFE01E0701C01E0701CC
:10189600C01E0701C01E0701C01E0701C01E0701AA
:1018A600C01FFFFFC01FFFFFC01E0701C01C0701AE
:1018B6008000070000000700000007000000070086
:1018C60000000700000007000000070000000700F6
:1018D600000007000000000000BFC6000000000076
:1018E600000780003C07C001FC07803FE007803905
:1018F600C1C78001C0E78001C0F78001C0778001C1
:10190600DE77807FFE078001C0078003C3C78003A0
:10191600E1E78003F8F78007FCE7F00FDE67F80FD2
:10192600DC07F81FC0FF801DDFE78039CC07807118
:10193600C0078061C0078001C0078001C007800121
:10194600E0078001E0078001C0070000000000BC3E
:10195600BC000000000380300003C03C0003C03C14
:101966000003C0380003C0380003C0386003F838ED
:10197600F07FFFFFF003C0380003C0380003C03813
:101986000003DC39C003FFFFE007E383C03FC183E8
:10199600C07FC1C3803BC1C78003C0EF0003C0EF57
:1019A6000003C07E0003C07C0003C07C0003C0FEB1
:1019B600003BC3EF803F8787F80FBF03F807780027
:1019C600E000000000C4EA0000000000C0000001C2
:1019D600F0000001E0000003C000C003C001E00702
:1019E600FFFFF00703C0000E03C0001E03C0003C4B
:1019F60003C3007303C78063FFFFC00383C00003F4
:101A060083C0000383C0000383C0000383C0600358
:101A160083C0F07FFFFFF80003C0000003C0000092
:101A260003C0000003C0000003C0000003C00000A4
:101A360003C0000003C00000000000D4C200000084
:101A4600000000000000E0070000FFFF8000F00734
:101A56008000F0070000F0070000F0070000F00724
:101A66000000FFFF0000FFFF0000F0070000F00786
:101A76000000F0070000F0070000E0070000FFFF8D
:101A86000000E0070000E0070000E0070001E007B3
:101A96000001C0070001C00700038007000780F7A8
:101AA600000F007F001E001F0038001C0000000011
:101AB60000C8D5000000000000000003000300037A
:101AC600FFFF8003FFFF80038007000380070003FA
:101AD60080070003800700038007000380070003D8
:101AE6008007000380070003FFFF00038007000351
:101AF60080070003800700038007000380070003B8
:101B060080070003800700038007000380070003A7
:101B1600FFFF000380070003800700038007000320
:101B260000000000000000D0C70000000000000018
:101B3600000380070003FFFF800380070003800780
:101B4600000380070003FFFF0003800700038007F0
:101B56000003FFFF0003FFFF00038707000387C0A2
:101B66000003C7810003C7838007FFFFC007078004
:101B7600000F0780001E0786001C078F003BFFFF33
:101B8600807007800000078000000780E000078162
:101B9600F07FFFFFF80000000000000000C6DA003A
:101BA60000000006000000079E0000079E7FF00769
:101BB6009E7FF0079FF8F03FFFF8F01F9E78F00732
:101BC6009E78F0079E78F007FE7FF0079E78F00774
:101BD6009E78F0079E70F007FE70F0079E70F00783
:101BE6009E7FF0079FFFF03FFFF0F0119070F0032B
:101BF600DCF0F003DEE0F0078FE0F00F0FE0F00E10
:101C060007C0F01C038FF0380F03E0201C01C00052
:031C1600000000CB
:0A39E1004200EEFFFF4200F000007C
:10396300E4FDFCC3ED9FEC9E5014E4FBFA0BBB009B
:0E397300010AEBF44A70F60DBD00010C80E570
:013981002223
:1039CB00D2A5C2A7D2B2C2A68F90C2A5D2A5D2A7AA
:0139DB0022C9
:0439B6001239CBFFF8
:1039BA00D2A5C2A7D2B2D2A68F90C2A5D2A5D2A7AB
:0139CA0022DA
:08393E00900118E0FEA3E0FF78
:10394600AD07AC06D2A5C2A7D2B2D2A6ECF590C2FC
:0D395600A5D2A5EDF590C2A5D2A5D2A7225D
:0A3A05001239CBAE04AF050239BA46
:0838F0009000F4EEF0A3EFF0EC
:1038F8007590FF7580FFC2A7D2A6C2B200AF90EF45
:0E390800FED2B2C2B200AD90EDFFD2B2D2A795
:01391600228E
:1037FC009000EDEFF0701C7D08FC7F36FE123A0550
:10380C009000E904F0A37440F09000E7E4F0A37496
:10381C00F0F0227D687C007F367E00123A05900025
:10382C00E9E4F0A374F0F09000E77401F0A37440A5
:02383C00F02278
:10220200E4900034F0A3F0D2B37F64FE123982C2AC
:10221200B37F647E00123982D2B37F647E001239AA
:10222200827FD37E001239CB1238F89000EBEEF0A9
:10223200A3EFF07BFF7A007926900039EEF0A3EF4E
:10224200F0121C847FCB7E001239CB7F391239BA4F
:102252007F2C1239BAE4FF1239BA7F341239BA7FAD
:10226200021239BA7FCF1239B67FA21239BA7FF081
:102272001239BA7FE81239CB7F841239BA7F111230
:1022820039BA7F7A1239BA7FEA1239CB7F661239AC
:10229200BAFF1239BA7FED1239CB7F551239BA7FA4
:1022A200011239BA7F231239BA7F011239BA7FF784
:1022B2001239CB7F201239BA7FC01239CB7F1C1260
:1022C20039BA7FC11239CB7F131239BA7FC512399D
:1022D200CB7F231239BA7F3F1239BA7FC71239CB6B
:1022E2007FA51239BA7FB11239B67F171239BA7F78
:1022F2003A1239CB7F551239BA7FB61239CB7F0ADF
:102302001239BA7FA21239BA7F271239BAFF1239AB
:10231200BA7F361239CB7F081239BA7FF21239CB23
:102322007F021239BA7F261239CB7F011239BA7F66
:10233200E01239CB7F0F1239BA7F141239BA1F1249
:1023420039BA7F0C1239BA7F0E1239BA7F051239A7
:10235200BA7F451239BA7F851239BA7F361239BA35
:102362007F091239BA7F141239BA7F051239BA7F3E
:10237200091239BA7F031239BAFF1239BA7FE11250
:1023820039B67F241239BA7F261239BA7F0312393D
:10239200BA7F0F1239BA7F041239BA7F3F1239BAA3
:1023A2007F141239BA7F521239BA7F041239BA7FB6
:1023B200101239BA7F0E1239BA7F381239BA0F1297
:1023C20039BA7F0F1239BA7F2A1239B61239BA12C4
:1023D20039BA7FEF1239BA7F2B1239B61239BA0FD6
:1023E2001239BA7F3F1239BA7F111239CB7F781274
:1023F20039637F321239827F297E001239CBE4FFA2
:0E2402001237FC9000F0E0FEA3E0FF023670FF
:05387E00E0FEA3E0FFE5
:10388300900053EEF0A3EFF0A3ECF0A3EDF07F2A4A
:103893007E001239CB900053123941AE02AF0312AE
:1038A30039467F2B7E001239CBA312394190005940
:0A38B3001239417F2C7E000239CB50
:0C3407009000F2ECF0A3EDF0AB07AA0679
:10341300E4A3F0A3F0A3F0A304F0A3E4F0A304F067
:10342300D39000E8E09B9000E7E09A40159000E914
:10343300E0FEA3E0FF9000F2E0FCA3E0FD9FEC9E22
:103443004004E4FEFF22AF03AE02C0079000F2E0A7
:10345300FFA3E0900059CFF0A3EFF0D00712388319
:103463007F2E7E001239CB1238F81238F01238F062
:10347300A31238F3A3EEF0A3EFF09000F6E01313DA
:10348300543F7E007805C333CE33CED8F9FDAC0666
:103493009000F4E0131313541F33333354F84CFCEC
:0F34A3009000F8E0131313541FFFECFEEF4DFFE2
:0134B20022F7
:08367000900036EEF0A3EFF02C
:10367800E4A3F0A3F09000E8E024FFFB9000E7E06B
:1036880034FFFA9000EAE024FFFE9000E9E034FFFE
:10369800900059F0A3CEF0E4FDFCFFFE123883E45D
:1036A800FAFBD39000E8E09B9000E7E09A4039E409
:1036B800900038F0A3F09000E9E0FEA3E0FFC3908B
:1036C8000039E09F900038E09E501690003612397D
:1036D80041900039E004F070DD900038E004F0809B
:0836E800D50BBB00010A80BAFA
:0136F00022B7
:103337009000DDECF0A3EDF09000DBEEF0A3EFF0F2
:083347009000DFEAF0A3EBF0B7
:10334F00E49000E5F0A3F0D3EF9BEE9A4003023434
:10335F00069000E1E0FEA3E0FF9000DDE0FCA3E0BB
:10336F00FD9FEC9E40030234069000DFE0FAA3E0DD
:10337F00FBA3E0FFA3E0900059CFF0A3EFF0900084
:10338F00DB12387E9000DBE0FEA3E0FFC39000E08D
:10339F00E09FFF9000DFE09ECF2401CF340090002C
:1033AF00DBF0A3EFF0A3E0FEA3E0FFC39000E2E0A9
:1033BF009FFF9000E1E09ECF2401CF34009000DD0D
:1033CF00F0A3EFF09000DB74FFF5F0121FEC45F067
:1033DF0060259000DDE0FFA3E09000E5CFF0A3EFC4
:1033EF00F09000E574FFF5F0121FEC45F060D590FA
:0733FF0000E312394180EAEE
:0134060022A3
:0E2EBD009000ADEEF0A3EFF0A3ECF0A3EDF06B
:102ECB009000ADE0FEA3E0FFC3EB9FFFEA9ECF2493
:102EDB0001CF34009000BAF0A3EFF09000AFE0FE0A
:102EEB00A3E0FFC39000B4E09FFF9000B3E09ECF40
:102EFB002401CF34009000B8F0A3EFF09000AFE0C6
:102F0B00FCA3E0FD9000B3E0FFA3E0900059CFF0ED
:102F1B00A3EFF09000AD12387EE49000BCF0A3F06C
:102F2B009000B8E0FEA3E0FFC39000BDE09F9000CF
:102F3B00BCE09E5074E49000BEF0A3F09000BAE0A9
:102F4B00FEA3E0FF9000BEE0FAA3E0FBC39FEA9E66
:102F5B0050469000BAE0FCA3E0FDA3E0FEA3E0FF27
:102F6B00121FC4EB2FFFEA3EFEEF25E0FFEE33FE10
:102F7B009000B5E0FBA3E0FAA3E0F98F828E8312F9
:102F8B002002FFAEF01239469000BFE004F070ACA7
:102F9B009000BEE004F080A49000BDE004F07080CF
:092FAB009000BCE004F0022F2BA1
:012FB40022FA
:10383E00900102FEE0FCA3E0FDC39000FFE09DFDC1
:06384E009000FEE09CFC6E
:10385400AB07AA068D828C83C006C007AE83AF82F5
:10386400900059EEF0A3EFF0D007D0061238839001
:0A38740000EEE0FEA3E0FF0239467B
:0637B400FDE0FAA3E0FBBA
:1037BA0090004DEEF0A3EFF0900051EAF0A3EBF089
:1037CA0090004FECF0A3EDF090004DE0FAA3E0FB7F
:1037DA00FFAE02C007A3E0FFA3E0900059CFF0A319
:1037EA00EFF0D007123883900051E0FEA3E0FF0209
:0237FA0039464E
:1036F10090010EEEF0A3EFF0A3ECF0A3EDF0A3EA3E
:10370100F0A3EBF01237BA90010FE02401FF900112
:103711000EE03400FE900110E0FCA3E0A31237B4E8
:1037210090010EE0FEA3E0FF900111E02401FD9065
:103731000110E03400FC9001121237B590010FE046
:103741002401FF90010EE03400FE900111E02401FC
:10375100FD900110E03400FC900112E0FAA3E0FBBF
:033761000237BA72
:0E24100090007CEEF0A3EFF0A3ECF0A3EDF053
:10241E00E4900084F0A3F0A3F0A3F0A3F0A3F09057
:10242E00007CE0FEA3E0FFC3EB9FFFEA9E90008AD4
:10243E00F0A3EFF090007EE0FAA3E0FBC3900083E0
:10244E00E09BFE900082E09A90008CF0A3CEF0907C
:10245E00007CE0FFA3E0900094CFF0A3EFF0A3EA9E
:10246E00F0A3EBF090008AE0FEA3E0FFD39400EE21
:10247E0064809480400A900090E4F0A304F08021E0
:10248E00EF4E7008900090F0A3F0801574FF90004E
:10249E0090F0A3F0C3E49FFFE49E90008AF0A3EFB8
:1024AE00F090008CE0FEA3E0FFD39400EE648094E5
:1024BE0080400A900092E4F0A304F08021EF4E7069
:1024CE0008900092F0A3F0801574FF900092F0A394
:1024DE00F0C3E49FFFE49E90008CF0A3EFF0900019
:1024EE008CE0FEA3E0FF90008AE0FCA3E0FDD39F0A
:1024FE00EE6480F8EC64809890008E4007ECF0A3B8
:10250E00EDF08005EEF0A3EFF0E4900084F0A3F080
:10251E0090008FE02401FF90008EE03400FED390F7
:10252E000085E09F900084E09E40030225FE90000F
:10253E0094E0FEA3E0FFA3E0FCA3E0FD123854906C
:10254E00008AE0FEA3E0FF900087E02FF090008667
:10255E00E03EF090008CE0FEA3E0FF900089E02FBB
:10256E00F0900088E03EF090008EE0FEA3E0FF9039
:10257E000086E0FCA3E0FDD39FEE6480F8EC64805F
:10258E00984020ED9FFFEC9E900086F0A3EFF09018
:10259E000090E0FEA3E0FF900095E02FF0900094F5
:1025AE00E03EF090008EE0FEA3E0FF900088E0FC9D
:1025BE00A3E0FDD39FEE6480F8EC6480984020ED9C
:1025CE009FFFEC9E900088F0A3EFF0900092E0FE4B
:1025DE00A3E0FF900097E02FF0900096E03EF09081
:1025EE000085E004F07006900084E004F002251EE1
:0125FE0022BA
:0E25FF0090005EEEF0A3EFF0A3ECF0A3EDF081
:10260D00E490006AF0A3F0A3F0A3F090005EE0FE6A
:10261D00A3E0FFC3EB9FFFEA9E90006EF0A3EFF0E7
:10262D00900060E0FAA3E0FBC3900065E09BFE9094
:10263D000064E09A900070F0A3CEF090005EE0FF91
:10264D00A3E0900078CFF0A3EFF0A3EAF0A3EBF0B6
:10265D0090006EE0FEA3E0FFD39400EE64809480C2
:10266D00400A900074E4F0A304F08021EF4E70084E
:10267D00900074F0A3F0801574FF900074F0A3F037
:10268D00C3E49FFFE49E90006EF0A3EFF090007006
:10269D00E0FEA3E0FFD39400EE64809480400A90A6
:1026AD000076E4F0A304F08021EF4E7008900076E0
:1026BD00F0A3F0801574FF900076F0A3F0C3E49FB3
:1026CD00FFE49E900070F0A3EFF0900070E0FEA389
:1026DD00E0FF90006EE0FCA3E0FDD39FEE6480F878
:1026ED00EC6480989000724007ECF0A3EDF080054B
:1026FD00EEF0A3EFF0E4900068F0A3F0900073E02B
:10270D002401FF900072E03400FED3900069E09F39
:10271D00900068E09E40030227EB900078E0FEA356
:10272D00E0FFA3E0FCA3E09000661237B490006ECA
:10273D00E0FEA3E0FF90006BE02FF090006AE03E1A
:10274D00F0900070E0FEA3E0FF90006DE02FF090A0
:10275D00006CE03EF0900072E0FEA3E0FF90006A96
:10276D00E0FCA3E0FDD39FEE6480F8EC648098401C
:10277D0020ED9FFFEC9E90006AF0A3EFF0900074A7
:10278D00E0FEA3E0FF900079E02FF0900078E03EAE
:10279D00F0900072E0FEA3E0FF90006CE0FCA3E07F
:1027AD00FDD39FEE6480F8EC6480984020ED9FFF90
:1027BD00EC9E90006CF0A3EFF0900076E0FEA3E0AD
:1027CD00FF90007BE02FF090007AE03EF0900069E2
:0E27DD00E004F07006900068E004F0022709A6
:0127EB0022CB
:10325F00900114EEF0A3EFF0900118EAF0A3EBF059
:08326F00900116ECF0A3EDF054
:10327700900114E0FAA3E0FB24FFFFEA34FFFEC04D
:1032870006C007ED24FFFDEC34FFFCEB2401FBE453
:103297003AFAA3E0FEA3E02401FFE43E900059F0D0
:1032A700A3EFF0D007D006123883E4FB12393E0BA8
:1032B700EBB409F8900115E024FCFF900114E03409
:1032C700FFFEC007900116E0FCA3E0FD900115E0AA
:1032D7002404FB900114E03400FA900116E0FFA3E8
:1032E700E0900059CFF0A3EFF0D007123883E4FB4A
:1032F70012393E0BEBB409F8900117E024FCFD905E
:103307000116E034FFFC900114E0FAA3E0FBA3E010
:10331700FEA3E02404FFE43E900059F0A3EFF090F1
:0F332700011412387EE4FB12393E0BEBB409F8A7
:013336002274
:1034B30090010AEAF0A3EBF0900106EEF0A3EFF01F
:1034C300A3ECF0A3EDF0C007A3E0FAA3E0FB9001A7
:1034D30008E0FFA3E0900082CFF0A3EFF0D0071243
:1034E3002410900106E0FAA3E0FBFFAE02C007A39D
:1034F300E0FCA3E0FD90010CE0FFA3E0900082CF8D
:10350300F0A3EFF0D00712241090010CE0FCA3E02D
:10351300FD90010AE0FAA3E0FBA3E0FFA3E0900023
:1035230082CFF0A3EFF0900106E0FEA3E0FF1224A8
:103533001090010AE0FAA3E0FBFFAE02C00790017E
:1035430008E0FCA3E0FD90010CE0FFA3E090008203
:0A355300CFF0A3EFF0D00702241020
:0E27EC009000FCEEF0A3EFF0A3ECF0A3EDF0F4
:1027FA00E4A3F0A3F0EBFF7E00A3EEF0A3EFF02535
:10280A00E0FFEE33FEC374039F900105F0E49E904F
:10281A000104F0900102E0FEA3E0FF900100E0FC59
:10282A00A3E0FDD39FEE6480F8EC64809840030235
:10283A0029C39000FDE02DFF9000FCE03C12383ED9
:10284A00900102E0FEA3E0FF9000FDE02FFF900060
:10285A00FCE03E900100123841900102E0FEA3E044
:10286A00FF9000FDE02FFF9000FCE03EFE9001008B
:10287A00E0FCA3E0FD9000FFE02DFD9000FEE03CAF
:10288A00FC123854900100E0FEA3E0FF9000FDE046
:10289A002FFF9000FCE03EFE900102E0FCA3E0FD69
:1028AA009000FFE02DFD9000FEE03CFC12385490B1
:1028BA000100E0FEA3E0FFC39000FDE09FFF90004F
:1028CA00FCE09EFE900102E0FCA3E0FD9000FFE028
:1028DA002DFD9000FEE03CFC123854900102E0FE0F
:1028EA00A3E0FFC39000FDE09FFF9000FCE09EFE86
:1028FA00900100E0FCA3E0FD9000FFE02DFD9000B8
:10290A00FEE03CFC123854900100E0FEA3E0FFC355
:10291A009000FDE09FFF9000FCE09E12383E90017F
:10292A0002E0FEA3E0FFC39000FDE09FFF9000FCE1
:10293A00E09EFE900100123842900101E004F0701E
:10294A0006900100E004F0C3900104E064809480E2
:10295A005025900100E0FEA3E07802C333CE33CEC7
:10296A00D8F92406FFE43EFE900105E02FF090011D
:10297A0004E03EF002281D900102E0FEA3E0FFC33E
:10298A00900101E09FFF900100E09EFEEF7802C3F4
:10299A0033CE33CED8F9240AFFE43EFE900105E097
:1029AA002FF0900104E03EF0900103E024FFF09044
:0929BA000102E034FFF002281DC7
:0129C30022F1
:1029C400900041EEF0A3EFF0900045EBF09000434F
:0529D400ECF0A3EDF0A2
:1029D90090004AECF0A3EDF0900046E0FF131313CA
:1029E900541FFEEF540760047F0180027F00EE2F21
:1029F900FF900046E0C313FEEF8EF0A490004CF068
:102A0900900045E024E0F0E4F990004CE0FFE9C3D0
:102A19009F4003022B3B900046E0FFB40C1290004C
:102A290045E075F00CA42433F582E5F034008031DB
:102A3900EFB41012900045E075F010A424A7F582B8
:102A4900E5F03404801B900046E064186003022B13
:102A59003B900045E075F024A42497F582E5F03415
:102A69000AF583E58229F582E43583F583E49390B9
:102A79000048F0E4900049F0900048E030E71390F6
:102A89000041E0FEA3E0FFA3E0FCA3E0FD9000EE1F
:102A99008017900047E07014900041E0FEA3E0FF2A
:102AA900A3E0FCA3E0FD9000F01237B5900048E0E8
:102AB90025E0F0900044E004F07006900043E00443
:102AC900F09000E9E0FEA3E0FF900043E0FCA3E002
:102AD900FDC39FEC9E505B90004AE0FEA3E0FFC35C
:102AE900ED9FFDEC9EFC900046E07A00B50530EACA
:102AF900B5042C900043EEF0A3EFF0900042E004FF
:102B0900F07006900041E004F09000E7E0FEA3E0D9
:102B1900FFC3900042E09F900041E09E4010229048
:102B29000049E004F0E0C394085003022A81090235
:022B39002A125E
:012B3B002277
:07376400C3EF9E14FD7F0A74
:08376B0090011AEFF0A3EDF04C
:10377300A31221790000000190011BE0FF14F0EF78
:103783006020A3E0F8A3E0F9A3E0FAA3E0FB900133
:103793001AE0FFE4FCFDFE12203A90011C12216D99
:1037A30080D690011CE0FCA3E0FDA3E0FEA3E0FFB4
:0137B30022F3
:0E3183009000CEEEF0A3EFF0A3ECF0A3EDF081
:10319100E49000DAF09000D8F09000D6E0FF9000C3
:1031A100D8E0FEC39F400302325E123764A804A92F
:1031B10005AA06AB079000D2E0FCA3E0FDA3E0FE68
:1031C100A3E0FF1220C5E47B0AFAF9F81220C590AA
:1031D10000D9EBF0A3E070459000D6E014FF900019
:1031E100D8E0FEC39F5036A3E0702C9000D7E0FBDF
:1031F100C3138EF0A4FF9000CFE02FFF9000CEE02C
:1032010035F0FE9000D0E0FCA3E0FD900046EBF02D
:10321100E4A3F07B20803A9000DA7401F09000D7AB
:10322100E0FAC313FFA3E0FEEF8EF0A4FF9000CFFE
:10323100E02FFF9000CEE035F0FE9000D0E0FCA33F
:10324100E0FD9000D9E02430FB900046EAF0E4A3D1
:0D325100F01229C49000D8E004F002319A78
:01325E00224D
:0E2D94009000C0EEF0A3EFF0A3ECF0A3EDF082
:102DA200E49000CDF09000CBF09000C8E0FF9000DE
:102DB200CBE0FEC39F4003022EBC123764A804A9D5
:102DC20005AA06AB079000C4E0FCA3E0FDA3E0FE69
:102DD200A3E0FF1220C5E47B0AFAF9F81220C5909D
:102DE20000CCEBF0A3E06003022E739000C8E01465
:102DF200FF9000CBE0FEC39F5077A3E0706D900080
:102E0200CAE0F99000C930E72BE0FBC3138EF0A4AF
:102E1200FF9000C1E02FFF9000C0E035F0FE90006F
:102E2200C2E0FCA3E0FD900046EBF0E95401A3F000
:102E32007B30807AE0FBC313FF9000CBE0FEEF8E85
:102E4200F0A4FF9000C1E02FFF9000C0E035F0FE3B
:102E52009000C2E0FCA3E0FD900046EBF09000CAB7
:102E6200E05401900047F07B2080439000CD740134
:102E7200F09000C9E0FAC313FF9000CBE0FEEF8EA2
:102E8200F0A4FF9000C1E02FFF9000C0E035F0FEFB
:102E92009000C2E0FCA3E0FD9000CCE02430FB9067
:102EA2000046EAF09000CAE05401900047F012296F
:0A2EB200C49000CBE004F0022DAB49
:012EBC0022F3
:10309E00900034EEF0A3EFF0A3ECF0A3EDF0A3EA72
:0430AE00F0A3EBF0B0
:1030B200900034E0FEA3E0FF900040F0900039E081
:1030C2002FF0900038E03EF0900036E0FEA3E0FFE3
:1030D20090003BE02FF090003AE03EF090003DE09F
:1030E200FBA3E0FAA3E0F9121F7EFFD3947E400314
:1030F200023182EFC394205003023182900038E003
:10310200FEA3E0FF900035E09F900034E09E401F58
:10311200900040E0FF900034E4F0A3EFF090003C18
:10312200E0FF900037E02FF0900036E03400F0909E
:10313200003AE0FEA3E0FF900036E0FCA3E0FDC30E
:103142009FEC9E503B900034E0FEA3E0FF121F7EF6
:10315200FB90003CE0900046F0E4A3F01229C490FA
:10316200003CE0C313FF900035E02FF0900034E004
:103172003400F090003EE475F001121FD60230DEFA
:01318200222A
:102C6900900034EEF0A3EFF0A3ECF0A3EDF0A3EBAA
:072C7900F0A3EAF0A3E9F06B
:102C8000900038E0FBA3E0FAA3E0F9121F7E700386
:102C9000022D93900034E0FAA3E0FBFFAE02C006E1
:102CA000C007A3E0FCA3E0FDEB241FFBE43AFA908D
:102CB0000036E0FEA3E0241CFFE43E900059F0A3A0
:102CC000EFF0D007D006123883E490003BF090007C
:102CD0003BE0FFC394144003022D78900038E0FBE2
:102CE000A3E0FAA3E0F9121F7EFE75F076EFA424AC
:102CF000F3F582E5F03417F583E4936E707190007C
:102D000001121F97FF90003BE075F076A424F4F5C4
:102D100082E5F03417F583E4936F7053FB90003B2A
:102D2000E075F076A424F5F582E5F03417F583E537
:102D3000822BF582E43583F583E493FF90003CE435
:102D4000F0A3EFF0E4FA90003DE030E7059000EEEC
:102D500080039000F012394190003DE025E0F090B2
:102D6000003CE033F00AEAB408DC0BEBB474AE903C
:102D7000003BE004F0022CCE900039E475F0021222
:102D80001FD6900035E02420F0900034E03400F0AD
:032D9000022C8092
:012D9300221D
:102B3C00900098EEF0A3EFF0A3ECF0A3EDF0A3EA75
:042B4C00F0A3EBF017
:102B5000E49000A3F0A3F0A31221790000000090FC
:102B600000A91221790000000090009AE0FCA3E087
:102B7000FDA3E0FEA3E0FF900098E0FAA3E02FFFA2
:102B8000EA3ECF24FFFBEF34FFFA90009EE0FEA365
:102B9000E0FF90009AE0F8A3E02FFFE83ECF24FF8B
:102BA000CF34FF900059F0A3EFF090009812387ED8
:102BB00090009EE0FCA3E0FD90009CE0FEA3E0FFFF
:102BC000121FC4EF25E0FFEE33FEE4FCFD9000A9E8
:102BD00012216D9000A5A3A3E0FEA3E0FDAC0624A6
:102BE00001FFE43CFE9000A0E0FBA3E0FAA3E0F9C3
:102BF0008F828E83121F97FF9000A3E4F0A3EFF063
:102C0000E0F8E4F0E89000A3F08D828C83121F9727
:102C1000FF9000A3E0FEA3E04FFF9000A3EEF0FEC4
:102C2000A3EFF0123946A3E0FCA3E0FDA3E0FEA36E
:102C3000E02402FFE43EFEE43DFDE43CFC9000A500
:102C400012216D9000A9E0FCA3E0FDA3E0FEA3E04B
:102C5000FF9000A5E0F8A3E0F9A3E0FAA3E0FBC32E
:082C60001221575003022BD38F
:012C68002249
:0300000002355D69
:0C355D00787FE4F6D8FD7581210235A4CA
:101F7E00BB010689828A83E0225002E722BBFE0261
:091F8E00E32289828A83E4932294
:101F9700BB010CE58229F582E5833AF583E02250FF
:101FA70006E92582F8E622BBFE06E92582F8E22249
:0D1FB700E58229F582E5833AF583E4932263
:101FC400EF8DF0A4A8F0CF8CF0A428CE8DF0A42E31
:021FD400FE22EB
:101FD600C5F0F8A3E028F0C5F0F8E5821582700296
:061FE6001583E038F02233
:101FEC00A3F8E0C5F025F0F0E582158270021583A8
:061FFC00E0C838F0E82205
:10200200BB0110E58229F582E5833AF583E0F5F01C
:10201200A3E0225009E92582F886F008E622BBFEF9
:102022000AE92582F8E2F5F008E222E5832AF5833F
:08203200E993F5F0A3E9932204
:10203A00E88FF0A4CC8BF0A42CFCE98EF0A42CFC45
:10204A008AF0EDA42CFCEA8EF0A4CDA8F08BF0A4C3
:10205A002DCC3825F0FDE98FF0A42CCD35F0FCEB22
:10206A008EF0A4FEA9F0EB8FF0A4CFC5F02ECD39E7
:0F207A00FEE43CFCEAA42DCE35F0FDE43CFC2254
:1020890075F008758200EF2FFFEE33FECD33CDCC0E
:1020990033CCC58233C5829BED9AEC99E582984091
:1020A9000CF582EE9BFEED9AFDEC99FC0FD5F0D66E
:1020B900E4CEFBE4CDFAE4CCF9A88222B800C1B998
:1020C9000059BA002DEC8BF084CFCECDFCE5F0CBD6
:1020D900F97818EF2FFFEE33FEED33FDEC33FCEB0F
:1020E90033FB10D703994004EB99FB0FD8E5E4F9CA
:1020F900FA227818EF2FFFEE33FEED33FDEC33FCB7
:10210900C933C910D7059BE99A4007EC9BFCE99AAA
:10211900F90FD8E0E4C9FAE4CCFB2275F010EF2FEF
:10212900FFEE33FEED33FDCC33CCC833C810D707EF
:102139009BEC9AE899400AED9BFDEC9AFCE899F82A
:0E2149000FD5F0DAE4CDFBE4CCFAE4C8F922BD
:10215700EB9FF5F0EA9E42F0E99D42F0EC6480C8FF
:0621670064809845F0229F
:0C216D00ECF0A3EDF0A3EEF0A3EFF022E5
:10217900A8828583F0D083D08212219012219012F7
:102189002190122190E473E493A3C583C5F0C5831C
:10219900C8C582C8F0A3C583C5F0C583C8C582C8B0
:0121A9002213
:101C1900E5082439F582E43400F583E005082290CB
:101C29000036300703900039E475F0011221BC0237
:101C39001F7E2000E97F2ED2008018EF540F2490D8
:101C4900D43440D4FF30040BEF24BFB41A0050033E
:101C59002461FFE50960021509050CE50C70020510
:101C69000B30070E900036E475F0011221BCEF022B
:101C790021AA0239177403D2078003E4C207F508C1
:101C89009000361221D3E4F509F50BF50CE509604E
:101C9900077F20121C5C80F5750AFFC201C200C2D1
:101CA90002C203C205C206C208121C28FF700D3009
:101CB90007057F00121C6DAF0CAE0B22B4255FC265
:101CC900D5C204121C28FF24D0B40A00501A75F09A
:101CD9000A780930D50508B6FF0106C6A426F620FC
:101CE900D5047002D20380D924CFB41A00EF50046E
:101CF900C2E5D204021E6ED20180C6D20080C0D2D3
:101D09000280BCD2D580BAD20580B47F20121C5C77
:101D19002002077401B5090040F1121C19FF121CB9
:101D29005C021C96D208D2068095121C19FB121C63
:101D390019FA121C19F94A4B7006793F7A1F7BFF71
:101D490020022EE509602A7E008E82758300121F0B
:101D59009760060EEE650A70F0C2D5EBC0E0EAC0E6
:101D6900E0E9C0E0EE121EB5D0E0F9D0E0FAD0E02B
:101D7900FB121F7EFF60AAEBC0E0EAC0E0E9C0E009
:101D8900121C5CD0E02401F9D0E03400FAD0E0FB69
:101D9900E50A0460DCD50AD980877BFF7A1E79B110
:101DA900D202809C791080027908C206C208800894
:101DB900D2D5790A8004790AC2D5E50A047002F5F8
:101DC9000AE4FAFDFEFF121C19FC7B08200113121C
:101DD9001C19FD7B1030000A121C19FE121C19FF78
:101DE9007B20EC3382D592D55013C3E43000069F93
:101DF900FFE49EFEE42001039DFDE49CFCE4CBF896
:101E0900C201EC700CCFCECDCCE824F8F870F38089
:101E190017C3EF33FFEE33FEED33FDEC33FCEB3349
:101E2900FB994002FB0FD8E9EB300105F8D0E0C47B
:101E390048B201C0E00AEC4D4E4F78207B0070C2D9
:101E4900EAB50A0040BCC0E0121EB7D0F0D0E020CD
:101E59000104C4C0E0C4B201C0F0121C45D0F0D5E1
:101E6900F0EB021C961221DC1D33531DAD581D04E5
:101E79004C1D00421DB14F1DB9441DB9491D1943DF
:081E89001DBF551DA3461DA35A
:101E9100451DA3471F5F501D082D1D0C2E1D2F2B07
:101EA1001D10231D2D201F482A1CC84800001D2776
:101EB1003F3F3F00790AA2D5200314300509B9102C
:101EC100020404B9080104A2D5200602500104202D
:101ED10002689202B509005034C0E07F2030031936
:101EE1007F30A20272067205500F121F0EC202C28B
:101EF10006C205C2087F30800F300503E9C0E01239
:101F01001C5C300503D0E0F9D0E0B509CC300517F1
:101F11007F30B9100C121C5C7F583004077F788029
:101F210003B90803121C5C3002057F2D021C5C7F83
:101F3100202008F87F2B2006F322920280CF286E02
:101F4100756C6C2900D201121C193001F8C201789C
:101F51000930D50108F6021CC82D50434958121CFE
:101F6100192403B405004001E4901F5A93121C4D3B
:0D1F7100743A121C4DD203750904021DAD17
:10356900022FB5E493A3F8E493A34003F68001F294
:1035790008DFF48029E493A3F85407240CC8C33363
:10358900C4540F4420C8834004F456800146F6DF32
:10359900E4800B01020408102040809039DCE47EAD
:1035A900019360BCA3FF543F30E509541FFEE49327
:1035B900A360010ECF54C025E060A840B8E493A3EE
:1035C900FAE493A3F8E493A3C8C582C8CAC583CA19
:1035D900F0A3C8C582C8CAC583CADFE9DEE780BED1
:0139EB0000DB
:1021AA00BB010689828A83F0225002F722BBFE0114
:0221BA00F3220E
:1021BC00F8E0FBA3A3E0F925F0F0E58215827002AC
:0721CC001583E0FA38F02250
:0921D300EBF0A3EAF0A3E9F0220D
:1021DC00D083D082F8E4937012740193700DA3A392
:1021EC0093F8740193F5828883E4737402936860A6
:0621FC00EFA3A3A380DFA6
:10391700EFB40A07740D123922740A309811A89966
:10392700B8130CC2983098FDA899C298B811F63010
:0739370099FDC299F59922E8
:00000001FF
