:10028E00E4F50812060A0508E50875F03284E5F073
:10029E007014120464E4FBFA792078411200031200
:1002AE0001478E098F0AC3E509648094805010C3FC
:1002BE00E4950AF50AE49509F509750B408003E407
:1002CE00F50BAE09AF0A7C037DE81201F5741A2F07
:1002DE00F8E6F50CAE09AF0A7C037DE81201F5AA2B
:1002EE0004AB057D647C00AF03AE021201F5741AF7
:1002FE002FF8E6F50D7D647C00AF03AE021201F51A
:10030E00AA04AB057D0A7C00AF03AE021201F574A0
:10031E001A2FF8E64480F50E7D0A7C00AF03AE027C
:10032E001201F5741A2DF8E6F50F7B007A00790BA1
:08033E007D0412034602029443
:1005C900111A3F065B4F666D7D077F6F777C395E39
:0305D90079710035
:060346008B108A118912E0
:10034C00E4F513ED14F514F513E513C39408507B81
:10035C00E513B40800504D90036AF8282873020383
:10036C008202038602038A02038E02039202039A1C
:10037C000203A20203AAD2A4800ED2A48012D2A499
:10038C008016D2A4801AC2A4D2A3D2A28016C2A470
:10039C00D2A3C2A2800EC2A4C2A3D2A28006C2A4BF
:1003AC00C2A3C2A2C3E5139514FFE49400AB10AA38
:1003BC0011A9128F82F5831201C8F5807F647E002B
:0B03CC001205FFE4F580051302035545
:0103D7002203
:1005DD00C2B77F4B7E001205FFD2B77F027E0002AD
:0205ED0005FF08
:1004DF00E4F51730B712E517C39414500B05177FC7
:1004EF00017E001205FF80EBE517C3941440037FD4
:1004FF000122E4F51720B712E517C39414500B052A
:10050F00177F017E001205FF80EBE517C39414409F
:06051F00037F01227F00B2
:0105250022B3
:10058B00E4F519C2B70000D2B7000030B7057519F2
:0F059B00018003E4F5197F057E001205FFAF19FB
:0105AA00222E
:10056500E4F517F518FFF51712058BEFC433333390
:100575005480FEE518C3134EF5180517E517C39407
:050585000840E5AF187D
:01058A00224E
:020526008F172D
:10052800E4F518F519F518E5175401F519E517C399
:1005380013F517E519600FC2B70000D2B77F067E22
:10054800001205FF800DC2B77F067E001205FFD29C
:0C055800B700000518E518C3940840CB5C
:010564002274
:1005EF001205DD1204DF7FCC1205267F440205269B
:07060A001205DD1204DF22DE
:10046400E4FFF514F515F5161205EF1205DD120477
:10047400DF7FCC1205267FBE1205261205658F1478
:10048400120565EFFE7C00E42514F516EC3EF51527
:1004940054F8FEEEB4F821E516F4FFE515F4FEEF8A
:1004A4002401F516E43EF515FCAD16E412010EE444
:1004B400FBFA798078BD800FAC15AD16E412010EFD
:1004C400E4FBFA7980783D1200038F138E128D11AC
:0A04D4008C10AF13AE12AD11AC1086
:0104DE0022FB
:0B05FF00EF1FAC0670011E4C70F622CE
:1005AB00D3EF9400EE940040147D6E7C00ED1D7033
:0D05BB00011CED4C70F7EF1F70E61E80E391
:0105C8002210
:10000300EC4D6011E8497017ED33EC3304600DE4F7
:10001300FCFFFEFD22E933E8330470F80201B3125A
:10002300017E58046009E4CC24815006285009025B
:1000330001BD2840030201BAC0E0EB4A7044B98015
:1000430006D0E0FB0201A9EF4E701CBD8008EBFF58
:10005300EAFEE9FD80EBE98DF0A4FEE5F00200EC99
:10006300E9CDF9EAFEEBFFEF89F0A4FCE5F0CE89D8
:10007300F0A42EFFE435F0CD89F0A42DFEE435F095
:100083008067EF4E7005BD80D780C3EF8BF0A4ACC3
:10009300F0EE8BF0A42CFCE435F0F8EF8AF0A42CFE
:1000A300E5F038FCE433CB8DF0A42CFCE5F03BF811
:1000B300EE8AF0A42CFCE5F038F8E433CF89F0A401
:1000C3002CFCE5F038CF3400CE89F0A42FFFE5F007
:1000D3003EFEE433C98DF0A42EFEE5F039CD8AF05F
:1000E300A42FFFE5F03EFEE43DFD33D0E0FB5007D7
:1000F3000BBB000F0201BDEC2CFCEF33FFEE33FE14
:06010300ED33FD02019541
:1001090075F020800E75F010800575F0087D007E71
:10011900007F003392D530D50312022BEC33401007
:10012900EF33FFEE33FEED33FDEC33FCD5F0ED227A
:0E013900E5F0247EA2D513CC92E7CDCEFF22B6
:10014700EDD2E7CD33EC3392D524814006E4FFFEB0
:10015700FDFC22FCE4CFCECDCC24E0501174FF800F
:10016700EDC3CC13CCCD13CDCE13CECF13CF0470AC
:07017700F030D5DE02022B7F
:10017E00E9D2E7C933E833F892D5EDD2E7CD33ECC7
:07018E0033FC5002B2D52240
:10019500EC30E7100FBF000C0EBE00080DBD0004CB
:1001A5000BEB6014A2D5EB13FCED92E7FD2274FF77
:1001B500FCFDFEFF22E480F8A2D574FF13FC7D80D0
:0301C500E480EFE4
:030000000203D820
:0C03D800787FE4F6D8FD75812A02041F2E
:1001C800BB010CE58229F582E5833AF583E02250EC
:1001D80006E92582F8E622BBFE06E92582F8E22236
:0D01E800E58229F582E5833AF583E4932250
:1001F500C2D5EC30E709B2D5E4C39DFDE49CFCEE25
:1002050030E715B2D5E4C39FFFE49EFE120239C361
:10021500E49DFDE49CFC800312023930D507C3E45C
:060225009FFFE49EFE2293
:0E022B00C3E49FFFE49EFEE49DFDE49CFC22E4
:1003E40002028EE493A3F8E493A34003F68001F29F
:1003F40008DFF48029E493A3F85407240CC8C3331A
:10040400C4540F4420C8834004F456800146F6DFE8
:10041400E4800B01020408102040809005C9E47EAA
:10042400019360BCA3FF543F30E509541FFEE493DD
:10043400A360010ECF54C025E060A840B8E493A3A4
:10044400FAE493A3F8E493A3C8C582C8CAC583CACF
:10045400F0A3C8C582C8CAC583CADFE9DEE780BE87
:0105DC00001E
:10023900BC000BBE0029EF8DF084FFADF022E4CCA9
:10024900F875F008EF2FFFEE33FEEC33FCEE9DEC72
:10025900984005FCEE9DFE0FD5F0E9E4CEFD22EDB8
:10026900F8F5F0EE8420D21CFEADF075F008EF2F02
:10027900FFED33FD4007985006D5F0F222C398FDF3
:050289000FD5F0EA2290
:00000001FF
