:10012B0048656C6C6F20576F726C642100303132F4
:08013B00333435363738390042
:1000BB001201437BFF7A01792BE4FDFF1200037BD6
:0E00CB00FF7A0179387D01E4FF12000380FE08
:1000F700C2A6C2A5C2A78F807F017E001200D9D2F7
:0B010700A77F017E001200D9C2A722D2
:0A009600AB09AA0AA90B120112FF20
:1000A000D2A6C2A5C2A78F807F017E001200D9D23E
:0B00B000A77F017E001200D9C2A7222A
:100143007F381200F77F0C1200F77F061200F77F4B
:04015300010200F7AE
:05016E007F010200F713
:080003008F088B098A0A890BA2
:10000B00E4F50CEDD394014003020095E508940F41
:10001B005078EDC394015039AB09AA0AA90B120110
:10002B00126067C374109508FFE50CC39FE50C5075
:10003B0006248025088004250824B0FF1200F7123F
:10004B0000967401250BF50BE4350AF50A050C80B7
:10005B00C7AB09AA0AA90B120112602EC374109523
:10006B0008FFE50CC39FE50C500624C0250880044F
:10007B0025082470FF1200F71200967401250BF56A
:0A008B000BE4350AF50A050C80C7E6
:010095002248
:0B016300EF1FAC0670011E4C70F6226E
:1000D900D3EF9400EE940040147D6E7C00ED1D700A
:0D00E900011CED4C70F7EF1F70E61E80E368
:0100F60022E7
:03000000020157A3
:0C015700787FE4F6D8FD75810C0200BB37
:10011200BB010689828A83E0225002E722BBFE02EB
:09012200E32289828A83E493221E
:00000001FF
