:0A01050008080102040810204080E1
:0400F6007F017E0008
:0B00FA00EF1FAC0670011E4C70F622D8
:1000D800D3EF9400EE940040147D6E7C00ED1D700B
:0D00E800011CED4C70F7EF1F70E61E80E369
:0100F50022E8
:02008F00AD07BB
:10009100E4FBEDC4131313540124FF92B4ED25E0E6
:1000A100FDC2B61200F6D2B61200F60BBB08E3C2CF
:0600B100B51200F6D2B505
:0100B7002226
:1000B800E4F580E4FAE4FF12008F74082AF8E6FFFA
:1000C80012008F7FF47E011200D80ABA08E780E395
:03000000020003F8
:0C000300787FE4F6D8FD75810F02004AFA
:10000F000200B8E493A3F8E493A34003F68001F24F
:10001F0008DFF48029E493A3F85407240CC8C333F2
:10002F00C4540F4420C8834004F456800146F6DFC1
:10003F00E4800B0102040810204080900105E47E4B
:10004F00019360BCA3FF543F30E509541FFEE493B6
:10005F00A360010ECF54C025E060A840B8E493A37D
:10006F00FAE493A3F8E493A3C8C582C8CAC583CAA8
:10007F00F0A3C8C582C8CAC583CADFE9DEE780BE60
:01010F0000EF
:00000001FF
