:1000FC0011083F065B4F666D7D077F6F777C395E1D
:03010C0079710006
:0B011000EF1FAC0670011E4C70F622C1
:10008F00E4FDEDB40800504D90009EF8282873024F
:10009F0000B60200BA0200BE0200C20200C6020091
:1000AF00CE0200D60200DED2A4800ED2A48012D2DD
:1000BF00A48016D2A4801AC2A4D2A3D2A28016C240
:1000CF00A4D2A3C2A2800EC2A4C2A3D2A28006C28F
:1000DF00A4C2A3C2A274082DF8E6F5807F647E0047
:0C00EF00120110E4F5800DED640870961D
:0100FB0022E2
:05011B0012008F80FBC3
:03000000020003F8
:0C000300787FE4F6D8FD75811802004AF1
:10000F0002011BE493A3F8E493A34003F68001F2EB
:10001F0008DFF48029E493A3F85407240CC8C333F2
:10002F00C4540F4420C8834004F456800146F6DFC1
:10003F00E4800B01020408102040809000FCE47E55
:10004F00019360BCA3FF543F30E509541FFEE493B6
:10005F00A360010ECF54C025E060A840B8E493A37D
:10006F00FAE493A3F8E493A3C8C582C8CAC583CAA8
:10007F00F0A3C8C582C8CAC583CADFE9DEE780BE60
:01010F0000EF
:00000001FF
