:1001A300E4F519F51A7FA412027C8E198F1A7C03C9
:1001B3007DE812014E74082FF8E6F51BAE19AF1A4D
:1001C3007C037DE812014EAA04AB057D647C00AF7D
:1001D30003AE0212014E74082FF8E6F51C7D647C11
:1001E30000AF03AE0212014EAA04AB057D0A7C00E8
:1001F300AF03AE0212014E74082FF8E6F51D7D0A17
:100203007C00AF03AE0212014E74082DF8E6F51E12
:0D0213007B007A00791B7D051200038088B6
:1002960011083F065B4F666D7D077F6F777C395E81
:0302A6007971006B
:060003008B1F8A208921F9
:10000900E4F522ED14F523F522E522C39408507B8B
:10001900E522B40800504D900027F8282873020003
:100029003F02004302004702004B02004F02005703
:1000390002005F020067D2A4800ED2A48012D2A46B
:100049008016D2A4801AC2A4D2A3D2A28016C2A4B6
:10005900D2A3C2A2800EC2A4C2A3D2A28006C2A405
:10006900C2A3C2A2C3E5229523FFE49400AB1FAA51
:1000790020A9218F82F583120121F5807F647E00FA
:0B0089001202AAE4F58005220200121A
:010094002249
:10022000C2B600E4FEEFC4131313540124FF92B4CA
:0E023000EF25E0FFD2B600C2B6000EBE08E712
:01023E00229D
:10023F00E4FFFEC2B600FDEF25E0FFEE33FED2B6BF
:0E024F0000C2B600A2B7E43342070DBD0CE9B1
:01025D00227E
:10027C00E4FDFCC2B6C2B51202207F06DFFEC2B698
:09028C0000D2B60012023FD2B507
:010295002246
:0B02AA00EF1FAC0670011E4C70F62226
:10025E00D3EF9400EE940040147D6E7C00ED1D7083
:0D026E00011CED4C70F7EF1F70E61E80E3E1
:01027B002260
:0300000002009566
:0C009500787FE4F6D8FD7581230200DCC2
:10012100BB010CE58229F582E5833AF583E0225093
:1001310006E92582F8E622BBFE06E92582F8E222DD
:0D014100E58229F582E5833AF583E49322F7
:10014E00BC000BBE0029EF8DF084FFADF022E4CC95
:10015E00F875F008EF2FFFEE33FEEC33FCEE9DEC5E
:10016E00984005FCEE9DFE0FD5F0E9E4CEFD22EDA4
:10017E00F8F5F0EE8420D21CFEADF075F008EF2FEE
:10018E00FFED33FD4007985006D5F0F222C398FDDF
:05019E000FD5F0EA227C
:1000A1000201A3E493A3F8E493A34003F68001F2D1
:1000B10008DFF48029E493A3F85407240CC8C33360
:1000C100C4540F4420C8834004F456800146F6DF2F
:1000D100E4800B0102040810204080900296E47E27
:1000E100019360BCA3FF543F30E509541FFEE49324
:1000F100A360010ECF54C025E060A840B8E493A3EB
:10010100FAE493A3F8E493A3C8C582C8CAC583CA15
:10011100F0A3C8C582C8CAC583CADFE9DEE780BECD
:0102A9000054
:00000001FF
