:1000DC000810387C7E3F3F7E7C3808087FBFDFEFFE
:0400EC00F7FBFDFE23
:0400F1007F017E000D
:0B00F500EF1FAC0670011E4C70F622DD
:02008F00AD07BB
:10009100E4FBEDC4131313540124FF92B4ED25E0E6
:1000A100FDC2B61200F1D2B61200F10BBB08E3C2D9
:0600B100B51200F1D2B50A
:0100B7002226
:1000B800E4FA74082AF8E6F58074102AF8E6FF12C4
:1000C800008F7F647E001200F5E4FF12008F0ABAE9
:0400D80008E080DCE0
:03000000020003F8
:0C000300787FE4F6D8FD75811702004AF2
:10000F000200B8E493A3F8E493A34003F68001F24F
:10001F0008DFF48029E493A3F85407240CC8C333F2
:10002F00C4540F4420C8834004F456800146F6DFC1
:10003F00E4800B01020408102040809000DCE47E75
:10004F00019360BCA3FF543F30E509541FFEE493B6
:10005F00A360010ECF54C025E060A840B8E493A37D
:10006F00FAE493A3F8E493A3C8C582C8CAC583CAA8
:10007F00F0A3C8C582C8CAC583CADFE9DEE780BE60
:0100F000000F
:00000001FF
