:10012100120255120295E518C4540F241DF8E6F584
:100131002EE518540F241DF8E6F52F753040E5170C
:10014100C4540F241DF8E6F531E517540F241DF8AA
:10015100E6F532753340E516C4540F241DF8E6F573
:1001610034E516540F241DF8E6F5357B007A007945
:080171002E7D0112000380AB9A
:1001F900111D3F065B4F666D7D077F6F777C395E0A
:0302090079710008
:060003008B368A378938B4
:10000900E4F539ED14F53AF539E539C39408507B2F
:10001900E539B40800504D900027F82828730200EC
:100029003F02004302004702004B02004F02005703
:1000390002005F020067D2A4800ED2A48012D2A46B
:100049008016D2A4801AC2A4D2A3D2A28016C2A4B6
:10005900D2A3C2A2800EC2A4C2A3D2A28006C2A405
:10006900C2A3C2A2C3E539953AFFE49400AB36AA0C
:1000790037A9388F82F583120228F5807F647E00C4
:0B0089001202ABE4F580053902001202
:010094002249
:10020C00070F81838587898B8D0708808284868878
:0B021C008A8C071647511320040521AF
:1001C400E4FEC2B500C2B600D2B500EF1392B4EF9C
:1001D400C313FFD2B600C2B6000EBE08EEE4FEEDB5
:1001E4001392B4EDC313FDD2B600C2B6000EBE081E
:0401F400EEC2B500A2
:0101F80022E4
:10017900E4FEFDFBC2B500C2B600D2B500EF139292
:10018900B4EFC313FFD2B600C2B6000EBE08EEE448
:10019900FEA2B4E433FDC43333335480FFEBC313FD
:1001A9004FFBD2B600C2B6000EBE08E5C2B500D2FA
:0A01B900B600C2B400D2B400AF03D8
:0101C3002219
:10025500E4FCFD7F8E1201C474082CF8E6FF7416C9
:100265002CF8E6FD1201C40CBC07ED7D807F8E02E3
:0202750001C4C2
:10029500E4FC740F2CF8E6FF12017974162CF8A60D
:0502A500070CBC07ED91
:0102AA002231
:0B02AB00EF1FAC0670011E4C70F62225
:10027700D3EF9400EE940040147D6E7C00ED1D706A
:0D028700011CED4C70F7EF1F70E61E80E3C8
:010294002247
:0300000002009566
:0C009500787FE4F6D8FD75813A0200DCAB
:10022800BB010CE58229F582E5833AF583E022508B
:1002380006E92582F8E622BBFE06E92582F8E222D5
:0D024800E58229F582E5833AF583E49322EF
:1000A100020121E493A3F8E493A34003F68001F253
:1000B10008DFF48029E493A3F85407240CC8C33360
:1000C100C4540F4420C8834004F456800146F6DF2F
:1000D100E4800B01020408102040809001F9E47EC5
:1000E100019360BCA3FF543F30E509541FFEE49324
:1000F100A360010ECF54C025E060A840B8E493A3EB
:10010100FAE493A3F8E493A3C8C582C8CAC583CA15
:10011100F0A3C8C582C8CAC583CADFE9DEE780BECD
:0102270000D6
:00000001FF
